{
  "contractName": "Campaigns",
  "abi": [
    {
      "inputs": [
        {
          "internalType": "uint256",
          "name": "",
          "type": "uint256"
        }
      ],
      "name": "deployedCampaigns",
      "outputs": [
        {
          "internalType": "address",
          "name": "",
          "type": "address"
        }
      ],
      "stateMutability": "view",
      "type": "function",
      "constant": true
    },
    {
      "inputs": [
        {
          "internalType": "uint256",
          "name": "_minimumContribution",
          "type": "uint256"
        },
        {
          "internalType": "uint256",
          "name": "_targetAmount",
          "type": "uint256"
        },
        {
          "internalType": "uint256",
          "name": "_deadline",
          "type": "uint256"
        },
        {
          "internalType": "string",
          "name": "_campaignName",
          "type": "string"
        },
        {
          "internalType": "string",
          "name": "_campaignDescription",
          "type": "string"
        },
        {
          "internalType": "string",
          "name": "_campaginImage",
          "type": "string"
        }
      ],
      "name": "createCampaign",
      "outputs": [],
      "stateMutability": "nonpayable",
      "type": "function"
    },
    {
      "inputs": [],
      "name": "getDeployedCampaigns",
      "outputs": [
        {
          "internalType": "address[]",
          "name": "",
          "type": "address[]"
        }
      ],
      "stateMutability": "view",
      "type": "function",
      "constant": true
    }
  ],
  "bytecode": "0x608060405234801561001057600080fd5b50612659806100206000396000f3fe60806040523480156200001157600080fd5b5060043610620000465760003560e01c80631ad417bf146200004b578063339d50a5146200006b5780634acb9d4f14620000a1575b600080fd5b6200006960048036038101906200006391906200030b565b620000c3565b005b620000896004803603810190620000839190620002df565b62000178565b604051620000989190620004e4565b60405180910390f35b620000ab620001b8565b604051620000ba919062000501565b60405180910390f35b600085858833878787604051620000da9062000248565b620000ec979695949392919062000525565b604051809103906000f08015801562000109573d6000803e3d6000fd5b5090506000819080600181540180825580915050600190039060005260206000200160009091909190916101000a81548173ffffffffffffffffffffffffffffffffffffffff021916908373ffffffffffffffffffffffffffffffffffffffff16021790555050505050505050565b600081815481106200018957600080fd5b906000526020600020016000915054906101000a900473ffffffffffffffffffffffffffffffffffffffff1681565b606060008054806020026020016040519081016040528092919081815260200182805480156200023e57602002820191906000526020600020905b8160009054906101000a900473ffffffffffffffffffffffffffffffffffffffff1673ffffffffffffffffffffffffffffffffffffffff1681526020019060010190808311620001f3575b5050505050905090565b611ea5806200077f83390190565b60006200026d6200026784620005e0565b620005b7565b9050828152602081018484840111156200028657600080fd5b62000293848285620006a9565b509392505050565b600082601f830112620002ad57600080fd5b8135620002bf84826020860162000256565b91505092915050565b600081359050620002d98162000764565b92915050565b600060208284031215620002f257600080fd5b60006200030284828501620002c8565b91505092915050565b60008060008060008060c087890312156200032557600080fd5b60006200033589828a01620002c8565b96505060206200034889828a01620002c8565b95505060406200035b89828a01620002c8565b945050606087013567ffffffffffffffff8111156200037957600080fd5b6200038789828a016200029b565b935050608087013567ffffffffffffffff811115620003a557600080fd5b620003b389828a016200029b565b92505060a087013567ffffffffffffffff811115620003d157600080fd5b620003df89828a016200029b565b9150509295509295509295565b6000620003fa838362000406565b60208301905092915050565b62000411816200066b565b82525050565b62000422816200066b565b82525050565b6000620004358262000626565b62000441818562000649565b93506200044e8362000616565b8060005b8381101562000485578151620004698882620003ec565b975062000476836200063c565b92505060018101905062000452565b5085935050505092915050565b60006200049f8262000631565b620004ab81856200065a565b9350620004bd818560208601620006b8565b620004c88162000753565b840191505092915050565b620004de816200069f565b82525050565b6000602082019050620004fb600083018462000417565b92915050565b600060208201905081810360008301526200051d818462000428565b905092915050565b600060e0820190506200053c600083018a620004d3565b6200054b6020830189620004d3565b6200055a6040830188620004d3565b62000569606083018762000417565b81810360808301526200057d818662000492565b905081810360a083015262000593818562000492565b905081810360c0830152620005a9818462000492565b905098975050505050505050565b6000620005c3620005d6565b9050620005d18282620006ee565b919050565b6000604051905090565b600067ffffffffffffffff821115620005fe57620005fd62000724565b5b620006098262000753565b9050602081019050919050565b6000819050602082019050919050565b600081519050919050565b600081519050919050565b6000602082019050919050565b600082825260208201905092915050565b600082825260208201905092915050565b600062000678826200067f565b9050919050565b600073ffffffffffffffffffffffffffffffffffffffff82169050919050565b6000819050919050565b82818337600083830152505050565b60005b83811015620006d8578082015181840152602081019050620006bb565b83811115620006e8576000848401525b50505050565b620006f98262000753565b810181811067ffffffffffffffff821117156200071b576200071a62000724565b5b80604052505050565b7f4e487b7100000000000000000000000000000000000000000000000000000000600052604160045260246000fd5b6000601f19601f8301169050919050565b6200076f816200069f565b81146200077b57600080fd5b5056fe60806040523480156200001157600080fd5b5060405162001ea538038062001ea5833981810160405281019062000037919062000242565b8660048190555085426200004c919062000399565b6003819055508460028190555083600160006101000a81548173ffffffffffffffffffffffffffffffffffffffff021916908373ffffffffffffffffffffffffffffffffffffffff1602179055508260079080519060200190620000b2929190620000f2565b508160089080519060200190620000cb929190620000f2565b508060099080519060200190620000e4929190620000f2565b5050505050505050620005a8565b82805462000100906200046a565b90600052602060002090601f01602090048101928262000124576000855562000170565b82601f106200013f57805160ff191683800117855562000170565b8280016001018555821562000170579182015b828111156200016f57825182559160200191906001019062000152565b5b5090506200017f919062000183565b5090565b5b808211156200019e57600081600090555060010162000184565b5090565b6000620001b9620001b38462000363565b6200033a565b905082815260208101848484011115620001d257600080fd5b620001df84828562000434565b509392505050565b600081519050620001f88162000574565b92915050565b600082601f8301126200021057600080fd5b815162000222848260208601620001a2565b91505092915050565b6000815190506200023c816200058e565b92915050565b600080600080600080600060e0888a0312156200025e57600080fd5b60006200026e8a828b016200022b565b9750506020620002818a828b016200022b565b9650506040620002948a828b016200022b565b9550506060620002a78a828b01620001e7565b945050608088015167ffffffffffffffff811115620002c557600080fd5b620002d38a828b01620001fe565b93505060a088015167ffffffffffffffff811115620002f157600080fd5b620002ff8a828b01620001fe565b92505060c088015167ffffffffffffffff8111156200031d57600080fd5b6200032b8a828b01620001fe565b91505092959891949750929550565b60006200034662000359565b9050620003548282620004a0565b919050565b6000604051905090565b600067ffffffffffffffff82111562000381576200038062000534565b5b6200038c8262000563565b9050602081019050919050565b6000620003a6826200042a565b9150620003b3836200042a565b9250827fffffffffffffffffffffffffffffffffffffffffffffffffffffffffffffffff03821115620003eb57620003ea620004d6565b5b828201905092915050565b600062000403826200040a565b9050919050565b600073ffffffffffffffffffffffffffffffffffffffff82169050919050565b6000819050919050565b60005b838110156200045457808201518184015260208101905062000437565b8381111562000464576000848401525b50505050565b600060028204905060018216806200048357607f821691505b602082108114156200049a576200049962000505565b5b50919050565b620004ab8262000563565b810181811067ffffffffffffffff82111715620004cd57620004cc62000534565b5b80604052505050565b7f4e487b7100000000000000000000000000000000000000000000000000000000600052601160045260246000fd5b7f4e487b7100000000000000000000000000000000000000000000000000000000600052602260045260246000fd5b7f4e487b7100000000000000000000000000000000000000000000000000000000600052604160045260246000fd5b6000601f19601f8301169050919050565b6200057f81620003f6565b81146200058b57600080fd5b50565b62000599816200042a565b8114620005a557600080fd5b50565b6118ed80620005b86000396000f3fe6080604052600436106101095760003560e01c80635114cb521161009557806381d12c581161006457806381d12c5814610314578063937e09b1146103555780639fb42b1f14610380578063c59ee1dc146103ab578063d4b83992146103d657610109565b80635114cb521461027e578063590e1ae3146102a75780636f9fb98a146102be5780637e509220146102e957610109565b806323bd4d7a116100dc57806323bd4d7a146101ab57806329dcb0cf146101d65780633eb7647b146102015780634cb6f4a51461022a5780634e260f6f1461025357610109565b806306e99fef1461010e5780630724fda914610118578063110842cb146101435780631f6d49421461016e575b600080fd5b610116610401565b005b34801561012457600080fd5b5061012d61055a565b60405161013a919061125f565b60405180910390f35b34801561014f57600080fd5b506101586105e8565b604051610165919061125f565b60405180910390f35b34801561017a57600080fd5b5061019560048036038101906101909190610ffe565b610676565b6040516101a291906113db565b60405180910390f35b3480156101b757600080fd5b506101c061068e565b6040516101cd9190611244565b60405180910390f35b3480156101e257600080fd5b506101eb6106b4565b6040516101f891906113db565b60405180910390f35b34801561020d57600080fd5b5061022860048036038101906102239190611027565b6106ba565b005b34801561023657600080fd5b50610251600480360381019061024c919061108e565b61080d565b005b34801561025f57600080fd5b506102686109b2565b60405161027591906113db565b60405180910390f35b34801561028a57600080fd5b506102a560048036038101906102a0919061108e565b6109b8565b005b3480156102b357600080fd5b506102bc610bac565b005b3480156102ca57600080fd5b506102d3610d1b565b6040516102e091906113db565b60405180910390f35b3480156102f557600080fd5b506102fe610d23565b60405161030b919061125f565b60405180910390f35b34801561032057600080fd5b5061033b6004803603810190610336919061108e565b610db1565b60405161034c959493929190611281565b60405180910390f35b34801561036157600080fd5b5061036a610e9c565b60405161037791906113db565b60405180910390f35b34801561038c57600080fd5b50610395610ea2565b6040516103a291906113db565b60405180910390f35b3480156103b757600080fd5b506103c0610ea8565b6040516103cd91906113db565b60405180910390f35b3480156103e257600080fd5b506103eb610eae565b6040516103f891906113db565b60405180910390f35b6003544210610445576040517f08c379a000000000000000000000000000000000000000000000000000000000815260040161043c9061131b565b60405180910390fd5b60025434101561048a576040517f08c379a0000000000000000000000000000000000000000000000000000000008152600401610481906112db565b60405180910390fd5b60008060003373ffffffffffffffffffffffffffffffffffffffff1673ffffffffffffffffffffffffffffffffffffffff1681526020019081526020016000205414156104ea57600660008154809291906104e4906115ee565b91905055505b346000803373ffffffffffffffffffffffffffffffffffffffff1673ffffffffffffffffffffffffffffffffffffffff16815260200190815260200160002060008282546105389190611468565b9250508190555034600560008282546105519190611468565b92505081905550565b600780546105679061158b565b80601f01602080910402602001604051908101604052809291908181526020018280546105939061158b565b80156105e05780601f106105b5576101008083540402835291602001916105e0565b820191906000526020600020905b8154815290600101906020018083116105c357829003601f168201915b505050505081565b600880546105f59061158b565b80601f01602080910402602001604051908101604052809291908181526020018280546106219061158b565b801561066e5780601f106106435761010080835404028352916020019161066e565b820191906000526020600020905b81548152906001019060200180831161065157829003601f168201915b505050505081565b60006020528060005260406000206000915090505481565b600160009054906101000a900473ffffffffffffffffffffffffffffffffffffffff1681565b60035481565b600160009054906101000a900473ffffffffffffffffffffffffffffffffffffffff1673ffffffffffffffffffffffffffffffffffffffff163373ffffffffffffffffffffffffffffffffffffffff161461074a576040517f08c379a00000000000000000000000000000000000000000000000000000000081526004016107419061133b565b60405180910390fd5b6000600a6000600b5481526020019081526020016000209050600b6000815480929190610776906115ee565b919050555083816000019080519060200190610793929190610eb4565b50828160010160006101000a81548173ffffffffffffffffffffffffffffffffffffffff021916908373ffffffffffffffffffffffffffffffffffffffff16021790555081816002018190555060008160030160006101000a81548160ff0219169083151502179055506000816004018190555050505050565b60008060003373ffffffffffffffffffffffffffffffffffffffff1673ffffffffffffffffffffffffffffffffffffffff168152602001908152602001600020541161088e576040517f08c379a0000000000000000000000000000000000000000000000000000000008152600401610885906112fb565b60405180910390fd5b6000600a60008381526020019081526020016000209050600015158160050160003373ffffffffffffffffffffffffffffffffffffffff1673ffffffffffffffffffffffffffffffffffffffff16815260200190815260200160002060009054906101000a900460ff1615151461093a576040517f08c379a0000000000000000000000000000000000000000000000000000000008152600401610931906113bb565b60405180910390fd5b60018160050160003373ffffffffffffffffffffffffffffffffffffffff1673ffffffffffffffffffffffffffffffffffffffff16815260200190815260200160002060006101000a81548160ff0219169083151502179055508060040160008154809291906109a9906115ee565b91905055505050565b60065481565b600160009054906101000a900473ffffffffffffffffffffffffffffffffffffffff1673ffffffffffffffffffffffffffffffffffffffff163373ffffffffffffffffffffffffffffffffffffffff1614610a48576040517f08c379a0000000000000000000000000000000000000000000000000000000008152600401610a3f9061133b565b60405180910390fd5b6004546005541015610a5957600080fd5b6000600a60008381526020019081526020016000209050600015158160030160009054906101000a900460ff16151514610ac8576040517f08c379a0000000000000000000000000000000000000000000000000000000008152600401610abf9061135b565b60405180910390fd5b6002600654610ad791906114be565b816004015411610b1c576040517f08c379a0000000000000000000000000000000000000000000000000000000008152600401610b139061139b565b60405180910390fd5b8060010160009054906101000a900473ffffffffffffffffffffffffffffffffffffffff1673ffffffffffffffffffffffffffffffffffffffff166108fc82600201549081150290604051600060405180830381858888f19350505050158015610b8a573d6000803e3d6000fd5b5060018160030160006101000a81548160ff0219169083151502179055505050565b60035442118015610bc05750600454600554105b610bff576040517f08c379a0000000000000000000000000000000000000000000000000000000008152600401610bf69061137b565b60405180910390fd5b60008060003373ffffffffffffffffffffffffffffffffffffffff1673ffffffffffffffffffffffffffffffffffffffff1681526020019081526020016000205411610c4a57600080fd5b60003390508073ffffffffffffffffffffffffffffffffffffffff166108fc6000803373ffffffffffffffffffffffffffffffffffffffff1673ffffffffffffffffffffffffffffffffffffffff168152602001908152602001600020549081150290604051600060405180830381858888f19350505050158015610cd3573d6000803e3d6000fd5b5060008060003373ffffffffffffffffffffffffffffffffffffffff1673ffffffffffffffffffffffffffffffffffffffff1681526020019081526020016000208190555050565b600047905090565b60098054610d309061158b565b80601f0160208091040260200160405190810160405280929190818152602001828054610d5c9061158b565b8015610da95780601f10610d7e57610100808354040283529160200191610da9565b820191906000526020600020905b815481529060010190602001808311610d8c57829003601f168201915b505050505081565b600a602052806000526040600020600091509050806000018054610dd49061158b565b80601f0160208091040260200160405190810160405280929190818152602001828054610e009061158b565b8015610e4d5780601f10610e2257610100808354040283529160200191610e4d565b820191906000526020600020905b815481529060010190602001808311610e3057829003601f168201915b5050505050908060010160009054906101000a900473ffffffffffffffffffffffffffffffffffffffff16908060020154908060030160009054906101000a900460ff16908060040154905085565b60025481565b600b5481565b60055481565b60045481565b828054610ec09061158b565b90600052602060002090601f016020900481019282610ee25760008555610f29565b82601f10610efb57805160ff1916838001178555610f29565b82800160010185558215610f29579182015b82811115610f28578251825591602001919060010190610f0d565b5b509050610f369190610f3a565b5090565b5b80821115610f53576000816000905550600101610f3b565b5090565b6000610f6a610f658461141b565b6113f6565b905082815260208101848484011115610f8257600080fd5b610f8d848285611549565b509392505050565b600081359050610fa481611872565b92915050565b600081359050610fb981611889565b92915050565b600082601f830112610fd057600080fd5b8135610fe0848260208601610f57565b91505092915050565b600081359050610ff8816118a0565b92915050565b60006020828403121561101057600080fd5b600061101e84828501610f95565b91505092915050565b60008060006060848603121561103c57600080fd5b600084013567ffffffffffffffff81111561105657600080fd5b61106286828701610fbf565b935050602061107386828701610faa565b925050604061108486828701610fe9565b9150509250925092565b6000602082840312156110a057600080fd5b60006110ae84828501610fe9565b91505092915050565b6110c081611501565b82525050565b6110cf816114ef565b82525050565b6110de81611513565b82525050565b60006110ef8261144c565b6110f98185611457565b9350611109818560208601611558565b611112816116f3565b840191505092915050565b600061112a601f83611457565b915061113582611704565b602082019050919050565b600061114d601783611457565b91506111588261172d565b602082019050919050565b6000611170601383611457565b915061117b82611756565b602082019050919050565b6000611193602883611457565b915061119e8261177f565b604082019050919050565b60006111b6601e83611457565b91506111c1826117ce565b602082019050919050565b60006111d9601f83611457565b91506111e4826117f7565b602082019050919050565b60006111fc601983611457565b915061120782611820565b602082019050919050565b600061121f601683611457565b915061122a82611849565b602082019050919050565b61123e8161153f565b82525050565b600060208201905061125960008301846110c6565b92915050565b6000602082019050818103600083015261127981846110e4565b905092915050565b600060a082019050818103600083015261129b81886110e4565b90506112aa60208301876110b7565b6112b76040830186611235565b6112c460608301856110d5565b6112d16080830184611235565b9695505050505050565b600060208201905081810360008301526112f48161111d565b9050919050565b6000602082019050818103600083015261131481611140565b9050919050565b6000602082019050818103600083015261133481611163565b9050919050565b6000602082019050818103600083015261135481611186565b9050919050565b60006020820190508181036000830152611374816111a9565b9050919050565b60006020820190508181036000830152611394816111cc565b9050919050565b600060208201905081810360008301526113b4816111ef565b9050919050565b600060208201905081810360008301526113d481611212565b9050919050565b60006020820190506113f06000830184611235565b92915050565b6000611400611411565b905061140c82826115bd565b919050565b6000604051905090565b600067ffffffffffffffff821115611436576114356116c4565b5b61143f826116f3565b9050602081019050919050565b600081519050919050565b600082825260208201905092915050565b60006114738261153f565b915061147e8361153f565b9250827fffffffffffffffffffffffffffffffffffffffffffffffffffffffffffffffff038211156114b3576114b2611637565b5b828201905092915050565b60006114c98261153f565b91506114d48361153f565b9250826114e4576114e3611666565b5b828204905092915050565b60006114fa8261151f565b9050919050565b600061150c8261151f565b9050919050565b60008115159050919050565b600073ffffffffffffffffffffffffffffffffffffffff82169050919050565b6000819050919050565b82818337600083830152505050565b60005b8381101561157657808201518184015260208101905061155b565b83811115611585576000848401525b50505050565b600060028204905060018216806115a357607f821691505b602082108114156115b7576115b6611695565b5b50919050565b6115c6826116f3565b810181811067ffffffffffffffff821117156115e5576115e46116c4565b5b80604052505050565b60006115f98261153f565b91507fffffffffffffffffffffffffffffffffffffffffffffffffffffffffffffffff82141561162c5761162b611637565b5b600182019050919050565b7f4e487b7100000000000000000000000000000000000000000000000000000000600052601160045260246000fd5b7f4e487b7100000000000000000000000000000000000000000000000000000000600052601260045260246000fd5b7f4e487b7100000000000000000000000000000000000000000000000000000000600052602260045260246000fd5b7f4e487b7100000000000000000000000000000000000000000000000000000000600052604160045260246000fd5b6000601f19601f8301169050919050565b7f4d696e696d756d20436f6e747269627574696f6e206973206e6f74206d657400600082015250565b7f594f75206d75737420626520636f6e7472696275746f72000000000000000000600082015250565b7f446561646c696e65206861732070617373656400000000000000000000000000600082015250565b7f4f6e6c79206f7267616e697a6174696f6e2063616e2063616c6c20746869732060008201527f66756e6374696f6e000000000000000000000000000000000000000000000000602082015250565b7f546865207265717565737420686173206265656e20636f6d706c657465640000600082015250565b7f596f7520617265206e6f7420656c696769626c6520666f7220726566756e6400600082015250565b7f4d616a6f7269747920646f6573206e6f7420737570706f727400000000000000600082015250565b7f596f75206861766520616c726561647920766f74656400000000000000000000600082015250565b61187b816114ef565b811461188657600080fd5b50565b61189281611501565b811461189d57600080fd5b50565b6118a98161153f565b81146118b457600080fd5b5056fea26469706673582212205712526c72a996a946ab179b01ef6a5e14911e4b193f47382fdc7a6533bc151264736f6c63430008030033a26469706673582212202a071e44090c626033b71a77558fa231bfe6a70368e98e7189242fee4f78392c64736f6c63430008030033",
  "immutableReferences": {},
  "source": "// SPDX-License-Identifier: MIT\npragma solidity >=0.4.22 <0.9.0;\n\ncontract Campaigns {\n    address[] public deployedCampaigns;\n\n    function createCampaign(\n        uint256 _minimumContribution,\n        uint256 _targetAmount,\n        uint256 _deadline,\n        string memory _campaignName,\n        string memory _campaignDescription,\n        string memory _campaginImage\n    ) public {\n        address newCampaign = address(\n            new CrowdFunding(\n                _targetAmount,\n                _deadline,\n                _minimumContribution,\n                msg.sender,\n                _campaignName,\n                _campaignDescription,\n                _campaginImage\n            )\n        );\n        deployedCampaigns.push(newCampaign);\n    }\n\n    function getDeployedCampaigns() public view returns (address[] memory) {\n        return deployedCampaigns;\n    }\n}\n\ncontract CrowdFunding {\n    mapping(address => uint256) public contributors;\n    address public organization;\n    uint256 public minimumContribution;\n    uint256 public deadline;\n    uint256 public target;\n    uint256 public raisedAmount;\n    uint256 public noOfContributors;\n    string public campaignName;\n    string public campaignDescription;\n    string public campaignImage;\n\n    struct Request {\n        string description;\n        address payable recipient;\n        uint256 value;\n        bool completed;\n        uint256 noOfVoters;\n        mapping(address => bool) voters;\n    }\n    mapping(uint256 => Request) public requests;\n    uint256 public numRequests;\n\n    constructor(\n        uint256 _target,\n        uint256 _deadline,\n        uint256 _minimumContribution,\n        address _organization,\n        string memory _campaginName,\n        string memory _campaignDescription,\n        string memory _campaignImage\n    ) {\n        target = _target;\n        deadline = block.timestamp + _deadline;\n        minimumContribution = _minimumContribution;\n        organization = _organization;\n        campaignName = _campaginName;\n        campaignDescription = _campaignDescription;\n        campaignImage = _campaignImage;\n    }\n\n    function sendEth() public payable {\n        require(block.timestamp < deadline, \"Deadline has passed\");\n        require(\n            msg.value >= minimumContribution,\n            \"Minimum Contribution is not met\"\n        );\n\n        if (contributors[msg.sender] == 0) {\n            noOfContributors++;\n        }\n        contributors[msg.sender] += msg.value;\n        raisedAmount += msg.value;\n    }\n\n    function getContractBalance() public view returns (uint256) {\n        return address(this).balance;\n    }\n\n    function refund() public {\n        require(\n            block.timestamp > deadline && raisedAmount < target,\n            \"You are not eligible for refund\"\n        );\n        require(contributors[msg.sender] > 0);\n        address payable user = payable(msg.sender);\n        user.transfer(contributors[msg.sender]);\n        contributors[msg.sender] = 0;\n    }\n\n    modifier onlyManger() {\n        require(\n            msg.sender == organization,\n            \"Only organization can call this function\"\n        );\n        _;\n    }\n\n    function createRequests(\n        string memory _description,\n        address payable _recipient,\n        uint256 _value\n    ) public onlyManger {\n        Request storage newRequest = requests[numRequests];\n        numRequests++;\n        newRequest.description = _description;\n        newRequest.recipient = _recipient;\n        newRequest.value = _value;\n        newRequest.completed = false;\n        newRequest.noOfVoters = 0;\n    }\n\n    function voteRequest(uint256 _requestNo) public {\n        require(contributors[msg.sender] > 0, \"YOu must be contributor\");\n        Request storage thisRequest = requests[_requestNo];\n        require(\n            thisRequest.voters[msg.sender] == false,\n            \"You have already voted\"\n        );\n        thisRequest.voters[msg.sender] = true;\n        thisRequest.noOfVoters++;\n    }\n\n    function makePayment(uint256 _requestNo) public onlyManger {\n        require(raisedAmount >= target);\n        Request storage thisRequest = requests[_requestNo];\n        require(\n            thisRequest.completed == false,\n            \"The request has been completed\"\n        );\n        require(\n            thisRequest.noOfVoters > noOfContributors / 2,\n            \"Majority does not support\"\n        );\n        thisRequest.recipient.transfer(thisRequest.value);\n        thisRequest.completed = true;\n    }\n}\n",
  "sourcePath": "/home/abhinav/Documents/College/S6/miniproject/packages/truffle/contracts/Campaigns.sol",
  "compiler": {
    "name": "solc",
    "version": "0.8.3+commit.8d00100c.Emscripten.clang"
  },
  "schemaVersion": "3.4.7",
  "updatedAt": "2022-04-09T16:08:29.301Z",
  "networkType": "ethereum",
  "devdoc": {
    "kind": "dev",
    "methods": {},
    "version": 1
  },
  "userdoc": {
    "kind": "user",
    "methods": {},
    "version": 1
  }
}