{
  "contractName": "Organisations",
  "abi": [
    {
      "inputs": [
        {
          "internalType": "uint256",
          "name": "",
          "type": "uint256"
        }
      ],
      "name": "organisations",
      "outputs": [
        {
          "internalType": "address",
          "name": "organisationAddress",
          "type": "address"
        },
        {
          "internalType": "string",
          "name": "name",
          "type": "string"
        },
        {
          "internalType": "string",
          "name": "websiteUrl",
          "type": "string"
        },
        {
          "internalType": "string",
          "name": "imageUrl",
          "type": "string"
        }
      ],
      "stateMutability": "view",
      "type": "function",
      "constant": true
    },
    {
      "inputs": [
        {
          "internalType": "string",
          "name": "_name",
          "type": "string"
        },
        {
          "internalType": "string",
          "name": "_websiteUrl",
          "type": "string"
        },
        {
          "internalType": "string",
          "name": "_imageUrl",
          "type": "string"
        }
      ],
      "name": "addOrganisation",
      "outputs": [],
      "stateMutability": "nonpayable",
      "type": "function"
    },
    {
      "inputs": [],
      "name": "getAllOrganisation",
      "outputs": [
        {
          "components": [
            {
              "internalType": "address",
              "name": "organisationAddress",
              "type": "address"
            },
            {
              "internalType": "string",
              "name": "name",
              "type": "string"
            },
            {
              "internalType": "string",
              "name": "websiteUrl",
              "type": "string"
            },
            {
              "internalType": "string",
              "name": "imageUrl",
              "type": "string"
            }
          ],
          "internalType": "struct Organisations.Organisation[]",
          "name": "",
          "type": "tuple[]"
        }
      ],
      "stateMutability": "view",
      "type": "function",
      "constant": true
    }
  ],
  "bytecode": "0x608060405234801561001057600080fd5b50610cc0806100206000396000f3fe608060405234801561001057600080fd5b50600436106100415760003560e01c8063246f8c4414610046578063b48f3cab14610079578063c35d337014610097575b600080fd5b610060600480360381019061005b9190610838565b6100b3565b60405161007094939291906109eb565b60405180910390f35b6100816102ab565b60405161008e9190610a45565b60405180910390f35b6100b160048036038101906100ac91906107a1565b610516565b005b600081815481106100c357600080fd5b90600052602060002090600402016000915090508060000160009054906101000a900473ffffffffffffffffffffffffffffffffffffffff169080600101805461010c90610ba1565b80601f016020809104026020016040519081016040528092919081815260200182805461013890610ba1565b80156101855780601f1061015a57610100808354040283529160200191610185565b820191906000526020600020905b81548152906001019060200180831161016857829003601f168201915b50505050509080600201805461019a90610ba1565b80601f01602080910402602001604051908101604052809291908181526020018280546101c690610ba1565b80156102135780601f106101e857610100808354040283529160200191610213565b820191906000526020600020905b8154815290600101906020018083116101f657829003601f168201915b50505050509080600301805461022890610ba1565b80601f016020809104026020016040519081016040528092919081815260200182805461025490610ba1565b80156102a15780601f10610276576101008083540402835291602001916102a1565b820191906000526020600020905b81548152906001019060200180831161028457829003601f168201915b5050505050905084565b60606000805480602002602001604051908101604052809291908181526020016000905b8282101561050d57838290600052602060002090600402016040518060800160405290816000820160009054906101000a900473ffffffffffffffffffffffffffffffffffffffff1673ffffffffffffffffffffffffffffffffffffffff1673ffffffffffffffffffffffffffffffffffffffff16815260200160018201805461035890610ba1565b80601f016020809104026020016040519081016040528092919081815260200182805461038490610ba1565b80156103d15780601f106103a6576101008083540402835291602001916103d1565b820191906000526020600020905b8154815290600101906020018083116103b457829003601f168201915b505050505081526020016002820180546103ea90610ba1565b80601f016020809104026020016040519081016040528092919081815260200182805461041690610ba1565b80156104635780601f1061043857610100808354040283529160200191610463565b820191906000526020600020905b81548152906001019060200180831161044657829003601f168201915b5050505050815260200160038201805461047c90610ba1565b80601f01602080910402602001604051908101604052809291908181526020018280546104a890610ba1565b80156104f55780601f106104ca576101008083540402835291602001916104f5565b820191906000526020600020905b8154815290600101906020018083116104d857829003601f168201915b505050505081525050815260200190600101906102cf565b50505050905090565b61051e610643565b83816020018190525082816040018190525081816060018190525033816000019073ffffffffffffffffffffffffffffffffffffffff16908173ffffffffffffffffffffffffffffffffffffffff1681525050600081908060018154018082558091505060019003906000526020600020906004020160009091909190915060008201518160000160006101000a81548173ffffffffffffffffffffffffffffffffffffffff021916908373ffffffffffffffffffffffffffffffffffffffff1602179055506020820151816001019080519060200190610600929190610681565b50604082015181600201908051906020019061061d929190610681565b50606082015181600301908051906020019061063a929190610681565b50505050505050565b6040518060800160405280600073ffffffffffffffffffffffffffffffffffffffff1681526020016060815260200160608152602001606081525090565b82805461068d90610ba1565b90600052602060002090601f0160209004810192826106af57600085556106f6565b82601f106106c857805160ff19168380011785556106f6565b828001600101855582156106f6579182015b828111156106f55782518255916020019190600101906106da565b5b5090506107039190610707565b5090565b5b80821115610720576000816000905550600101610708565b5090565b600061073761073284610a8c565b610a67565b90508281526020810184848401111561074f57600080fd5b61075a848285610b5f565b509392505050565b600082601f83011261077357600080fd5b8135610783848260208601610724565b91505092915050565b60008135905061079b81610c73565b92915050565b6000806000606084860312156107b657600080fd5b600084013567ffffffffffffffff8111156107d057600080fd5b6107dc86828701610762565b935050602084013567ffffffffffffffff8111156107f957600080fd5b61080586828701610762565b925050604084013567ffffffffffffffff81111561082257600080fd5b61082e86828701610762565b9150509250925092565b60006020828403121561084a57600080fd5b60006108588482850161078c565b91505092915050565b600061086d838361097a565b905092915050565b61087e81610b23565b82525050565b61088d81610b23565b82525050565b600061089e82610acd565b6108a88185610af0565b9350836020820285016108ba85610abd565b8060005b858110156108f657848403895281516108d78582610861565b94506108e283610ae3565b925060208a019950506001810190506108be565b50829750879550505050505092915050565b600061091382610ad8565b61091d8185610b01565b935061092d818560208601610b6e565b61093681610c62565b840191505092915050565b600061094c82610ad8565b6109568185610b12565b9350610966818560208601610b6e565b61096f81610c62565b840191505092915050565b60006080830160008301516109926000860182610875565b50602083015184820360208601526109aa8282610908565b915050604083015184820360408601526109c48282610908565b915050606083015184820360608601526109de8282610908565b9150508091505092915050565b6000608082019050610a006000830187610884565b8181036020830152610a128186610941565b90508181036040830152610a268185610941565b90508181036060830152610a3a8184610941565b905095945050505050565b60006020820190508181036000830152610a5f8184610893565b905092915050565b6000610a71610a82565b9050610a7d8282610bd3565b919050565b6000604051905090565b600067ffffffffffffffff821115610aa757610aa6610c33565b5b610ab082610c62565b9050602081019050919050565b6000819050602082019050919050565b600081519050919050565b600081519050919050565b6000602082019050919050565b600082825260208201905092915050565b600082825260208201905092915050565b600082825260208201905092915050565b6000610b2e82610b35565b9050919050565b600073ffffffffffffffffffffffffffffffffffffffff82169050919050565b6000819050919050565b82818337600083830152505050565b60005b83811015610b8c578082015181840152602081019050610b71565b83811115610b9b576000848401525b50505050565b60006002820490506001821680610bb957607f821691505b60208210811415610bcd57610bcc610c04565b5b50919050565b610bdc82610c62565b810181811067ffffffffffffffff82111715610bfb57610bfa610c33565b5b80604052505050565b7f4e487b7100000000000000000000000000000000000000000000000000000000600052602260045260246000fd5b7f4e487b7100000000000000000000000000000000000000000000000000000000600052604160045260246000fd5b6000601f19601f8301169050919050565b610c7c81610b55565b8114610c8757600080fd5b5056fea26469706673582212204cc88679ccbe234ba5ed8036e3b87c5d7cef784f519a47d17852923b04eb78fe64736f6c63430008030033",
  "immutableReferences": {},
  "source": "// SPDX-License-Identifier: MIT\npragma solidity >=0.4.22 <0.9.0;\n\ncontract Organisations {\n    struct Organisation {\n        address organisationAddress;\n        string name;\n        string websiteUrl;\n        string imageUrl;\n    }\n\n    Organisation[] public organisations;\n\n    function addOrganisation(\n        string memory _name,\n        string memory _websiteUrl,\n        string memory _imageUrl\n    ) public {\n        Organisation memory newOrganisation;\n\n        newOrganisation.name = _name;\n        newOrganisation.websiteUrl = _websiteUrl;\n        newOrganisation.imageUrl = _imageUrl;\n        newOrganisation.organisationAddress = msg.sender;\n\n        organisations.push(newOrganisation);\n    }\n\n    function getAllOrganisation() public view returns (Organisation[] memory) {\n        return organisations;\n    }\n}\n",
  "sourcePath": "/home/abhinav/Documents/College/S6/miniproject/packages/truffle/contracts/Organisations.sol",
  "compiler": {
    "name": "solc",
    "version": "0.8.3+commit.8d00100c.Emscripten.clang"
  },
  "schemaVersion": "3.4.7",
  "updatedAt": "2022-04-18T19:38:59.603Z",
  "networkType": "ethereum",
  "devdoc": {
    "kind": "dev",
    "methods": {},
    "version": 1
  },
  "userdoc": {
    "kind": "user",
    "methods": {},
    "version": 1
  }
}