{
  "contractName": "CrowdFunding",
  "abi": [
    {
      "inputs": [
        {
          "internalType": "uint256",
          "name": "_target",
          "type": "uint256"
        },
        {
          "internalType": "uint256",
          "name": "_deadline",
          "type": "uint256"
        },
        {
          "internalType": "uint256",
          "name": "_minimumContribution",
          "type": "uint256"
        },
        {
          "internalType": "address",
          "name": "_organization",
          "type": "address"
        },
        {
          "internalType": "string",
          "name": "_campaginName",
          "type": "string"
        },
        {
          "internalType": "string",
          "name": "_campaignDescription",
          "type": "string"
        },
        {
          "internalType": "string",
          "name": "_campaignImage",
          "type": "string"
        }
      ],
      "stateMutability": "nonpayable",
      "type": "constructor"
    },
    {
      "inputs": [],
      "name": "campaignDescription",
      "outputs": [
        {
          "internalType": "string",
          "name": "",
          "type": "string"
        }
      ],
      "stateMutability": "view",
      "type": "function"
    },
    {
      "inputs": [],
      "name": "campaignImage",
      "outputs": [
        {
          "internalType": "string",
          "name": "",
          "type": "string"
        }
      ],
      "stateMutability": "view",
      "type": "function"
    },
    {
      "inputs": [],
      "name": "campaignName",
      "outputs": [
        {
          "internalType": "string",
          "name": "",
          "type": "string"
        }
      ],
      "stateMutability": "view",
      "type": "function"
    },
    {
      "inputs": [
        {
          "internalType": "address",
          "name": "",
          "type": "address"
        }
      ],
      "name": "contributors",
      "outputs": [
        {
          "internalType": "uint256",
          "name": "",
          "type": "uint256"
        }
      ],
      "stateMutability": "view",
      "type": "function"
    },
    {
      "inputs": [],
      "name": "deadline",
      "outputs": [
        {
          "internalType": "uint256",
          "name": "",
          "type": "uint256"
        }
      ],
      "stateMutability": "view",
      "type": "function"
    },
    {
      "inputs": [],
      "name": "minimumContribution",
      "outputs": [
        {
          "internalType": "uint256",
          "name": "",
          "type": "uint256"
        }
      ],
      "stateMutability": "view",
      "type": "function"
    },
    {
      "inputs": [],
      "name": "noOfContributors",
      "outputs": [
        {
          "internalType": "uint256",
          "name": "",
          "type": "uint256"
        }
      ],
      "stateMutability": "view",
      "type": "function"
    },
    {
      "inputs": [],
      "name": "numRequests",
      "outputs": [
        {
          "internalType": "uint256",
          "name": "",
          "type": "uint256"
        }
      ],
      "stateMutability": "view",
      "type": "function"
    },
    {
      "inputs": [],
      "name": "organization",
      "outputs": [
        {
          "internalType": "address",
          "name": "",
          "type": "address"
        }
      ],
      "stateMutability": "view",
      "type": "function"
    },
    {
      "inputs": [],
      "name": "raisedAmount",
      "outputs": [
        {
          "internalType": "uint256",
          "name": "",
          "type": "uint256"
        }
      ],
      "stateMutability": "view",
      "type": "function"
    },
    {
      "inputs": [
        {
          "internalType": "uint256",
          "name": "",
          "type": "uint256"
        }
      ],
      "name": "requests",
      "outputs": [
        {
          "internalType": "string",
          "name": "description",
          "type": "string"
        },
        {
          "internalType": "address payable",
          "name": "recipient",
          "type": "address"
        },
        {
          "internalType": "uint256",
          "name": "value",
          "type": "uint256"
        },
        {
          "internalType": "bool",
          "name": "completed",
          "type": "bool"
        },
        {
          "internalType": "uint256",
          "name": "noOfVoters",
          "type": "uint256"
        }
      ],
      "stateMutability": "view",
      "type": "function"
    },
    {
      "inputs": [],
      "name": "target",
      "outputs": [
        {
          "internalType": "uint256",
          "name": "",
          "type": "uint256"
        }
      ],
      "stateMutability": "view",
      "type": "function"
    },
    {
      "inputs": [],
      "name": "sendEth",
      "outputs": [],
      "stateMutability": "payable",
      "type": "function"
    },
    {
      "inputs": [],
      "name": "getContractBalance",
      "outputs": [
        {
          "internalType": "uint256",
          "name": "",
          "type": "uint256"
        }
      ],
      "stateMutability": "view",
      "type": "function"
    },
    {
      "inputs": [],
      "name": "refund",
      "outputs": [],
      "stateMutability": "nonpayable",
      "type": "function"
    },
    {
      "inputs": [
        {
          "internalType": "string",
          "name": "_description",
          "type": "string"
        },
        {
          "internalType": "address payable",
          "name": "_recipient",
          "type": "address"
        },
        {
          "internalType": "uint256",
          "name": "_value",
          "type": "uint256"
        }
      ],
      "name": "createRequests",
      "outputs": [],
      "stateMutability": "nonpayable",
      "type": "function"
    },
    {
      "inputs": [
        {
          "internalType": "uint256",
          "name": "_requestNo",
          "type": "uint256"
        }
      ],
      "name": "voteRequest",
      "outputs": [],
      "stateMutability": "nonpayable",
      "type": "function"
    },
    {
      "inputs": [
        {
          "internalType": "uint256",
          "name": "_requestNo",
          "type": "uint256"
        }
      ],
      "name": "makePayment",
      "outputs": [],
      "stateMutability": "nonpayable",
      "type": "function"
    },
    {
      "inputs": [],
      "name": "getSummary",
      "outputs": [
        {
          "internalType": "uint256",
          "name": "",
          "type": "uint256"
        },
        {
          "internalType": "uint256",
          "name": "",
          "type": "uint256"
        },
        {
          "internalType": "uint256",
          "name": "",
          "type": "uint256"
        },
        {
          "internalType": "uint256",
          "name": "",
          "type": "uint256"
        },
        {
          "internalType": "uint256",
          "name": "",
          "type": "uint256"
        },
        {
          "internalType": "address",
          "name": "",
          "type": "address"
        },
        {
          "internalType": "string",
          "name": "",
          "type": "string"
        },
        {
          "internalType": "string",
          "name": "",
          "type": "string"
        },
        {
          "internalType": "string",
          "name": "",
          "type": "string"
        }
      ],
      "stateMutability": "view",
      "type": "function"
    }
  ],
  "bytecode": "0x60806040523480156200001157600080fd5b50604051620020f1380380620020f1833981810160405281019062000037919062000235565b86600481905550856003819055508460028190555083600160006101000a81548173ffffffffffffffffffffffffffffffffffffffff021916908373ffffffffffffffffffffffffffffffffffffffff1602179055508260079080519060200190620000a5929190620000e5565b508160089080519060200190620000be929190620000e5565b508060099080519060200190620000d7929190620000e5565b50505050505050506200050f565b828054620000f39062000400565b90600052602060002090601f01602090048101928262000117576000855562000163565b82601f106200013257805160ff191683800117855562000163565b8280016001018555821562000163579182015b828111156200016257825182559160200191906001019062000145565b5b50905062000172919062000176565b5090565b5b808211156200019157600081600090555060010162000177565b5090565b6000620001ac620001a68462000356565b6200032d565b905082815260208101848484011115620001c557600080fd5b620001d2848285620003ca565b509392505050565b600081519050620001eb81620004db565b92915050565b600082601f8301126200020357600080fd5b81516200021584826020860162000195565b91505092915050565b6000815190506200022f81620004f5565b92915050565b600080600080600080600060e0888a0312156200025157600080fd5b6000620002618a828b016200021e565b9750506020620002748a828b016200021e565b9650506040620002878a828b016200021e565b95505060606200029a8a828b01620001da565b945050608088015167ffffffffffffffff811115620002b857600080fd5b620002c68a828b01620001f1565b93505060a088015167ffffffffffffffff811115620002e457600080fd5b620002f28a828b01620001f1565b92505060c088015167ffffffffffffffff8111156200031057600080fd5b6200031e8a828b01620001f1565b91505092959891949750929550565b6000620003396200034c565b905062000347828262000436565b919050565b6000604051905090565b600067ffffffffffffffff8211156200037457620003736200049b565b5b6200037f82620004ca565b9050602081019050919050565b60006200039982620003a0565b9050919050565b600073ffffffffffffffffffffffffffffffffffffffff82169050919050565b6000819050919050565b60005b83811015620003ea578082015181840152602081019050620003cd565b83811115620003fa576000848401525b50505050565b600060028204905060018216806200041957607f821691505b6020821081141562000430576200042f6200046c565b5b50919050565b6200044182620004ca565b810181811067ffffffffffffffff821117156200046357620004626200049b565b5b80604052505050565b7f4e487b7100000000000000000000000000000000000000000000000000000000600052602260045260246000fd5b7f4e487b7100000000000000000000000000000000000000000000000000000000600052604160045260246000fd5b6000601f19601f8301169050919050565b620004e6816200038c565b8114620004f257600080fd5b50565b6200050081620003c0565b81146200050c57600080fd5b50565b611bd2806200051f6000396000f3fe6080604052600436106101145760003560e01c80634e260f6f116100a057806381d12c581161006457806381d12c5814610352578063937e09b1146103935780639fb42b1f146103be578063c59ee1dc146103e9578063d4b839921461041457610114565b80634e260f6f146102915780635114cb52146102bc578063590e1ae3146102e55780636f9fb98a146102fc5780637e5092201461032757610114565b806323bd4d7a116100e757806323bd4d7a146101b657806329dcb0cf146101e15780633eb7647b1461020c5780634051ddac146102355780634cb6f4a51461026857610114565b806306e99fef146101195780630724fda914610123578063110842cb1461014e5780631f6d494214610179575b600080fd5b61012161043f565b005b34801561012f57600080fd5b50610138610598565b60405161014591906114a2565b60405180910390f35b34801561015a57600080fd5b50610163610626565b60405161017091906114a2565b60405180910390f35b34801561018557600080fd5b506101a0600480360381019061019b9190611241565b6106b4565b6040516101ad919061161e565b60405180910390f35b3480156101c257600080fd5b506101cb6106cc565b6040516101d89190611487565b60405180910390f35b3480156101ed57600080fd5b506101f66106f2565b604051610203919061161e565b60405180910390f35b34801561021857600080fd5b50610233600480360381019061022e919061126a565b6106f8565b005b34801561024157600080fd5b5061024a61084b565b60405161025f99989796959493929190611639565b60405180910390f35b34801561027457600080fd5b5061028f600480360381019061028a91906112d1565b610a50565b005b34801561029d57600080fd5b506102a6610bf5565b6040516102b3919061161e565b60405180910390f35b3480156102c857600080fd5b506102e360048036038101906102de91906112d1565b610bfb565b005b3480156102f157600080fd5b506102fa610def565b005b34801561030857600080fd5b50610311610f5e565b60405161031e919061161e565b60405180910390f35b34801561033357600080fd5b5061033c610f66565b60405161034991906114a2565b60405180910390f35b34801561035e57600080fd5b50610379600480360381019061037491906112d1565b610ff4565b60405161038a9594939291906114c4565b60405180910390f35b34801561039f57600080fd5b506103a86110df565b6040516103b5919061161e565b60405180910390f35b3480156103ca57600080fd5b506103d36110e5565b6040516103e0919061161e565b60405180910390f35b3480156103f557600080fd5b506103fe6110eb565b60405161040b919061161e565b60405180910390f35b34801561042057600080fd5b506104296110f1565b604051610436919061161e565b60405180910390f35b6003544210610483576040517f08c379a000000000000000000000000000000000000000000000000000000000815260040161047a9061155e565b60405180910390fd5b6002543410156104c8576040517f08c379a00000000000000000000000000000000000000000000000000000000081526004016104bf9061151e565b60405180910390fd5b60008060003373ffffffffffffffffffffffffffffffffffffffff1673ffffffffffffffffffffffffffffffffffffffff1681526020019081526020016000205414156105285760066000815480929190610522906118d3565b91905055505b346000803373ffffffffffffffffffffffffffffffffffffffff1673ffffffffffffffffffffffffffffffffffffffff1681526020019081526020016000206000828254610576919061174d565b92505081905550346005600082825461058f919061174d565b92505081905550565b600780546105a590611870565b80601f01602080910402602001604051908101604052809291908181526020018280546105d190611870565b801561061e5780601f106105f35761010080835404028352916020019161061e565b820191906000526020600020905b81548152906001019060200180831161060157829003601f168201915b505050505081565b6008805461063390611870565b80601f016020809104026020016040519081016040528092919081815260200182805461065f90611870565b80156106ac5780601f10610681576101008083540402835291602001916106ac565b820191906000526020600020905b81548152906001019060200180831161068f57829003601f168201915b505050505081565b60006020528060005260406000206000915090505481565b600160009054906101000a900473ffffffffffffffffffffffffffffffffffffffff1681565b60035481565b600160009054906101000a900473ffffffffffffffffffffffffffffffffffffffff1673ffffffffffffffffffffffffffffffffffffffff163373ffffffffffffffffffffffffffffffffffffffff1614610788576040517f08c379a000000000000000000000000000000000000000000000000000000000815260040161077f9061157e565b60405180910390fd5b6000600a6000600b5481526020019081526020016000209050600b60008154809291906107b4906118d3565b9190505550838160000190805190602001906107d19291906110f7565b50828160010160006101000a81548173ffffffffffffffffffffffffffffffffffffffff021916908373ffffffffffffffffffffffffffffffffffffffff16021790555081816002018190555060008160030160006101000a81548160ff0219169083151502179055506000816004018190555050505050565b6000806000806000806060806060600254600b5460045447600354600160009054906101000a900473ffffffffffffffffffffffffffffffffffffffff1660076008600982805461089b90611870565b80601f01602080910402602001604051908101604052809291908181526020018280546108c790611870565b80156109145780601f106108e957610100808354040283529160200191610914565b820191906000526020600020905b8154815290600101906020018083116108f757829003601f168201915b5050505050925081805461092790611870565b80601f016020809104026020016040519081016040528092919081815260200182805461095390611870565b80156109a05780601f10610975576101008083540402835291602001916109a0565b820191906000526020600020905b81548152906001019060200180831161098357829003601f168201915b505050505091508080546109b390611870565b80601f01602080910402602001604051908101604052809291908181526020018280546109df90611870565b8015610a2c5780601f10610a0157610100808354040283529160200191610a2c565b820191906000526020600020905b815481529060010190602001808311610a0f57829003601f168201915b50505050509050985098509850985098509850985098509850909192939495969798565b60008060003373ffffffffffffffffffffffffffffffffffffffff1673ffffffffffffffffffffffffffffffffffffffff1681526020019081526020016000205411610ad1576040517f08c379a0000000000000000000000000000000000000000000000000000000008152600401610ac89061153e565b60405180910390fd5b6000600a60008381526020019081526020016000209050600015158160050160003373ffffffffffffffffffffffffffffffffffffffff1673ffffffffffffffffffffffffffffffffffffffff16815260200190815260200160002060009054906101000a900460ff16151514610b7d576040517f08c379a0000000000000000000000000000000000000000000000000000000008152600401610b74906115fe565b60405180910390fd5b60018160050160003373ffffffffffffffffffffffffffffffffffffffff1673ffffffffffffffffffffffffffffffffffffffff16815260200190815260200160002060006101000a81548160ff021916908315150217905550806004016000815480929190610bec906118d3565b91905055505050565b60065481565b600160009054906101000a900473ffffffffffffffffffffffffffffffffffffffff1673ffffffffffffffffffffffffffffffffffffffff163373ffffffffffffffffffffffffffffffffffffffff1614610c8b576040517f08c379a0000000000000000000000000000000000000000000000000000000008152600401610c829061157e565b60405180910390fd5b6004546005541015610c9c57600080fd5b6000600a60008381526020019081526020016000209050600015158160030160009054906101000a900460ff16151514610d0b576040517f08c379a0000000000000000000000000000000000000000000000000000000008152600401610d029061159e565b60405180910390fd5b6002600654610d1a91906117a3565b816004015411610d5f576040517f08c379a0000000000000000000000000000000000000000000000000000000008152600401610d56906115de565b60405180910390fd5b8060010160009054906101000a900473ffffffffffffffffffffffffffffffffffffffff1673ffffffffffffffffffffffffffffffffffffffff166108fc82600201549081150290604051600060405180830381858888f19350505050158015610dcd573d6000803e3d6000fd5b5060018160030160006101000a81548160ff0219169083151502179055505050565b60035442118015610e035750600454600554105b610e42576040517f08c379a0000000000000000000000000000000000000000000000000000000008152600401610e39906115be565b60405180910390fd5b60008060003373ffffffffffffffffffffffffffffffffffffffff1673ffffffffffffffffffffffffffffffffffffffff1681526020019081526020016000205411610e8d57600080fd5b60003390508073ffffffffffffffffffffffffffffffffffffffff166108fc6000803373ffffffffffffffffffffffffffffffffffffffff1673ffffffffffffffffffffffffffffffffffffffff168152602001908152602001600020549081150290604051600060405180830381858888f19350505050158015610f16573d6000803e3d6000fd5b5060008060003373ffffffffffffffffffffffffffffffffffffffff1673ffffffffffffffffffffffffffffffffffffffff1681526020019081526020016000208190555050565b600047905090565b60098054610f7390611870565b80601f0160208091040260200160405190810160405280929190818152602001828054610f9f90611870565b8015610fec5780601f10610fc157610100808354040283529160200191610fec565b820191906000526020600020905b815481529060010190602001808311610fcf57829003601f168201915b505050505081565b600a60205280600052604060002060009150905080600001805461101790611870565b80601f016020809104026020016040519081016040528092919081815260200182805461104390611870565b80156110905780601f1061106557610100808354040283529160200191611090565b820191906000526020600020905b81548152906001019060200180831161107357829003601f168201915b5050505050908060010160009054906101000a900473ffffffffffffffffffffffffffffffffffffffff16908060020154908060030160009054906101000a900460ff16908060040154905085565b60025481565b600b5481565b60055481565b60045481565b82805461110390611870565b90600052602060002090601f016020900481019282611125576000855561116c565b82601f1061113e57805160ff191683800117855561116c565b8280016001018555821561116c579182015b8281111561116b578251825591602001919060010190611150565b5b509050611179919061117d565b5090565b5b8082111561119657600081600090555060010161117e565b5090565b60006111ad6111a884611700565b6116db565b9050828152602081018484840111156111c557600080fd5b6111d084828561182e565b509392505050565b6000813590506111e781611b57565b92915050565b6000813590506111fc81611b6e565b92915050565b600082601f83011261121357600080fd5b813561122384826020860161119a565b91505092915050565b60008135905061123b81611b85565b92915050565b60006020828403121561125357600080fd5b6000611261848285016111d8565b91505092915050565b60008060006060848603121561127f57600080fd5b600084013567ffffffffffffffff81111561129957600080fd5b6112a586828701611202565b93505060206112b6868287016111ed565b92505060406112c78682870161122c565b9150509250925092565b6000602082840312156112e357600080fd5b60006112f18482850161122c565b91505092915050565b611303816117e6565b82525050565b611312816117d4565b82525050565b611321816117f8565b82525050565b600061133282611731565b61133c818561173c565b935061134c81856020860161183d565b611355816119d8565b840191505092915050565b600061136d601f8361173c565b9150611378826119e9565b602082019050919050565b600061139060178361173c565b915061139b82611a12565b602082019050919050565b60006113b360138361173c565b91506113be82611a3b565b602082019050919050565b60006113d660288361173c565b91506113e182611a64565b604082019050919050565b60006113f9601e8361173c565b915061140482611ab3565b602082019050919050565b600061141c601f8361173c565b915061142782611adc565b602082019050919050565b600061143f60198361173c565b915061144a82611b05565b602082019050919050565b600061146260168361173c565b915061146d82611b2e565b602082019050919050565b61148181611824565b82525050565b600060208201905061149c6000830184611309565b92915050565b600060208201905081810360008301526114bc8184611327565b905092915050565b600060a08201905081810360008301526114de8188611327565b90506114ed60208301876112fa565b6114fa6040830186611478565b6115076060830185611318565b6115146080830184611478565b9695505050505050565b6000602082019050818103600083015261153781611360565b9050919050565b6000602082019050818103600083015261155781611383565b9050919050565b60006020820190508181036000830152611577816113a6565b9050919050565b60006020820190508181036000830152611597816113c9565b9050919050565b600060208201905081810360008301526115b7816113ec565b9050919050565b600060208201905081810360008301526115d78161140f565b9050919050565b600060208201905081810360008301526115f781611432565b9050919050565b6000602082019050818103600083015261161781611455565b9050919050565b60006020820190506116336000830184611478565b92915050565b60006101208201905061164f600083018c611478565b61165c602083018b611478565b611669604083018a611478565b6116766060830189611478565b6116836080830188611478565b61169060a0830187611309565b81810360c08301526116a28186611327565b905081810360e08301526116b68185611327565b90508181036101008301526116cb8184611327565b90509a9950505050505050505050565b60006116e56116f6565b90506116f182826118a2565b919050565b6000604051905090565b600067ffffffffffffffff82111561171b5761171a6119a9565b5b611724826119d8565b9050602081019050919050565b600081519050919050565b600082825260208201905092915050565b600061175882611824565b915061176383611824565b9250827fffffffffffffffffffffffffffffffffffffffffffffffffffffffffffffffff038211156117985761179761191c565b5b828201905092915050565b60006117ae82611824565b91506117b983611824565b9250826117c9576117c861194b565b5b828204905092915050565b60006117df82611804565b9050919050565b60006117f182611804565b9050919050565b60008115159050919050565b600073ffffffffffffffffffffffffffffffffffffffff82169050919050565b6000819050919050565b82818337600083830152505050565b60005b8381101561185b578082015181840152602081019050611840565b8381111561186a576000848401525b50505050565b6000600282049050600182168061188857607f821691505b6020821081141561189c5761189b61197a565b5b50919050565b6118ab826119d8565b810181811067ffffffffffffffff821117156118ca576118c96119a9565b5b80604052505050565b60006118de82611824565b91507fffffffffffffffffffffffffffffffffffffffffffffffffffffffffffffffff8214156119115761191061191c565b5b600182019050919050565b7f4e487b7100000000000000000000000000000000000000000000000000000000600052601160045260246000fd5b7f4e487b7100000000000000000000000000000000000000000000000000000000600052601260045260246000fd5b7f4e487b7100000000000000000000000000000000000000000000000000000000600052602260045260246000fd5b7f4e487b7100000000000000000000000000000000000000000000000000000000600052604160045260246000fd5b6000601f19601f8301169050919050565b7f4d696e696d756d20436f6e747269627574696f6e206973206e6f74206d657400600082015250565b7f594f75206d75737420626520636f6e7472696275746f72000000000000000000600082015250565b7f446561646c696e65206861732070617373656400000000000000000000000000600082015250565b7f4f6e6c79206f7267616e697a6174696f6e2063616e2063616c6c20746869732060008201527f66756e6374696f6e000000000000000000000000000000000000000000000000602082015250565b7f546865207265717565737420686173206265656e20636f6d706c657465640000600082015250565b7f596f7520617265206e6f7420656c696769626c6520666f7220726566756e6400600082015250565b7f4d616a6f7269747920646f6573206e6f7420737570706f727400000000000000600082015250565b7f596f75206861766520616c726561647920766f74656400000000000000000000600082015250565b611b60816117d4565b8114611b6b57600080fd5b50565b611b77816117e6565b8114611b8257600080fd5b50565b611b8e81611824565b8114611b9957600080fd5b5056fea26469706673582212209dff4a372bee6063ea273b287b5f6482eafba35fd4570d060719e5275e831f8764736f6c63430008030033",
  "immutableReferences": {},
  "source": "// SPDX-License-Identifier: MIT\npragma solidity >=0.4.22 <0.9.0;\n\ncontract CrowdFunding {\n    mapping(address => uint256) public contributors;\n    address public organization;\n    uint256 public minimumContribution;\n    uint256 public deadline;\n    uint256 public target;\n    uint256 public raisedAmount;\n    uint256 public noOfContributors;\n    string public campaignName;\n    string public campaignDescription;\n    string public campaignImage;\n\n    struct Request {\n        string description;\n        address payable recipient;\n        uint256 value;\n        bool completed;\n        uint256 noOfVoters;\n        mapping(address => bool) voters;\n    }\n    mapping(uint256 => Request) public requests;\n    uint256 public numRequests;\n\n    constructor(\n        uint256 _target,\n        uint256 _deadline,\n        uint256 _minimumContribution,\n        address _organization,\n        string memory _campaginName,\n        string memory _campaignDescription,\n        string memory _campaignImage\n    ) {\n        target = _target;\n        deadline = _deadline;\n        minimumContribution = _minimumContribution;\n        organization = _organization;\n        campaignName = _campaginName;\n        campaignDescription = _campaignDescription;\n        campaignImage = _campaignImage;\n    }\n\n    function sendEth() public payable {\n        require(block.timestamp < deadline, \"Deadline has passed\");\n        require(\n            msg.value >= minimumContribution,\n            \"Minimum Contribution is not met\"\n        );\n\n        if (contributors[msg.sender] == 0) {\n            noOfContributors++;\n        }\n        contributors[msg.sender] += msg.value;\n        raisedAmount += msg.value;\n    }\n\n    function getContractBalance() public view returns (uint256) {\n        return address(this).balance;\n    }\n\n    function refund() public {\n        require(\n            block.timestamp > deadline && raisedAmount < target,\n            \"You are not eligible for refund\"\n        );\n        require(contributors[msg.sender] > 0);\n        address payable user = payable(msg.sender);\n        user.transfer(contributors[msg.sender]);\n        contributors[msg.sender] = 0;\n    }\n\n    modifier onlyManger() {\n        require(\n            msg.sender == organization,\n            \"Only organization can call this function\"\n        );\n        _;\n    }\n\n    function createRequests(\n        string memory _description,\n        address payable _recipient,\n        uint256 _value\n    ) public onlyManger {\n        Request storage newRequest = requests[numRequests];\n        numRequests++;\n        newRequest.description = _description;\n        newRequest.recipient = _recipient;\n        newRequest.value = _value;\n        newRequest.completed = false;\n        newRequest.noOfVoters = 0;\n    }\n\n    function voteRequest(uint256 _requestNo) public {\n        require(contributors[msg.sender] > 0, \"YOu must be contributor\");\n        Request storage thisRequest = requests[_requestNo];\n        require(\n            thisRequest.voters[msg.sender] == false,\n            \"You have already voted\"\n        );\n        thisRequest.voters[msg.sender] = true;\n        thisRequest.noOfVoters++;\n    }\n\n    function makePayment(uint256 _requestNo) public onlyManger {\n        require(raisedAmount >= target);\n        Request storage thisRequest = requests[_requestNo];\n        require(\n            thisRequest.completed == false,\n            \"The request has been completed\"\n        );\n        require(\n            thisRequest.noOfVoters > noOfContributors / 2,\n            \"Majority does not support\"\n        );\n        thisRequest.recipient.transfer(thisRequest.value);\n        thisRequest.completed = true;\n    }\n\n    function getSummary()\n        public\n        view\n        returns (\n            uint256,\n            uint256,\n            uint256,\n            uint256,\n            uint256,\n            address,\n            string memory,\n            string memory,\n            string memory\n        )\n    {\n        return (\n            minimumContribution,\n            numRequests,\n            target,\n            address(this).balance,\n            deadline,\n            organization,\n            campaignName,\n            campaignDescription,\n            campaignImage\n        );\n    }\n}\n",
  "sourcePath": "/home/abhinav/Documents/College/S6/miniproject/packages/truffle/contracts/CrowdFunding.sol",
  "compiler": {
    "name": "solc",
    "version": "0.8.3+commit.8d00100c.Emscripten.clang"
  },
  "schemaVersion": "3.4.7",
  "updatedAt": "2022-04-18T15:47:55.190Z",
  "devdoc": {
    "kind": "dev",
    "methods": {},
    "version": 1
  },
  "userdoc": {
    "kind": "user",
    "methods": {},
    "version": 1
  }
}